:020000040800F2
:100000000040002041430008350800083708000878
:1000100000000000000000000000000000000000E0
:10002000000000000000000000000000A5360008ED
:1000300000000000000000001137000855370008DC
:10004000914300080000000091430008914300081C
:100050009143000891430008914300089143000830
:1000600000000000914300089143000891430008FC
:10007000914300083908000891430008000000007F
:100080009143000891430008914300089143000800
:1000900091430008914300089143000891430008F0
:1000A00091430008914300089143000891430008E0
:1000B0004908000859080008000000006908000805
:1000C00010B5064C2378002B07D1054B002B02D02E
:1000D000044800E000BF0123237010BDE8010020A8
:1000E000000000006C4C0008044B10B5002B03D03E
:1000F0000349044800E000BF10BDC04600000000F6
:10010000EC0100206C4C000802B47146490849001B
:10011000095C49008E4402BC7047C04603B4714676
:10012000490840004900095A49008E4403BC704701
:10013000002243088B4274D303098B425FD3030A26
:100140008B4244D3030B8B4228D3030C8B420DD339
:10015000FF22090212BA030C8B4202D312120902C7
:1001600065D0030B8B4219D300E0090AC30B8B4205
:1001700001D3CB03C01A5241830B8B4201D38B03B3
:10018000C01A5241430B8B4201D34B03C01A524158
:10019000030B8B4201D30B03C01A5241C30A8B429B
:1001A00001D3CB02C01A5241830A8B4201D38B0286
:1001B000C01A5241430A8B4201D34B02C01A52412A
:1001C000030A8B4201D30B02C01A5241CDD2C3099C
:1001D0008B4201D3CB01C01A524183098B4201D318
:1001E0008B01C01A524143098B4201D34B01C01A03
:1001F000524103098B4201D30B01C01A5241C3087B
:100200008B4201D3CB00C01A524183088B4201D3E9
:100210008B00C01A524143088B4201D34B00C01AD5
:100220005241411A00D20146524110467047FFE741
:1002300001B5002000F006F802BDC0460029F7D045
:1002400076E770477047C04610B5012003F0ACF95F
:10025000FBE7000010B503F033FE2B4803F0A4F9D0
:1002600000F056F9284803F09FF90121274800F0D3
:100270007BF90121264800F077F90121254800F09B
:1002800073F9322003F090F90021234800F0A2F91D
:10029000322003F089F9214B2148196800F09AF9BE
:1002A000322003F081F91F4B1F48196800F092F9C2
:1002B000322003F079F91D4B1D48196800F08AF9C6
:1002C000322003F071F91B491B4800F083F93220FA
:1002D00003F06AF9194C1A48210000F07BF932202A
:1002E00003F062F92100174800F074F9322003F09E
:1002F0005BF91548002100F06DF9322003F054F944
:1003000000F0B4F91148F9E7B80B0000CC4C000834
:10031000D24C0008D84C0008DE4C00080800002031
:10032000EC4C000804000020FB4C000800000020FA
:100330000A4D0008194D00081B4D00082A4D000801
:100340002E4D00083A4D0008454D000828230000B6
:1003500070B50E4C8AB06B46220062CA62C3684612
:1003600022CA22C3002103F007F9094B1434186094
:1003700005A802002ACC2AC20ACC0AC2002103F036
:10038000FBF8044B18600AB070BDC046844C0008EE
:100390007C1100207811002070B58AB01422002151
:1003A00005A804F02AF88020244B00035969802610
:1003B000014359615A69224D024080200192019AFD
:1003C0005969C003014359615A697601024080208E
:1003D0000292029A596980020143596180215A6947
:1003E000C90202400392039A5A6928000A435A61DB
:1003F0005B6900220B4004933100049B00F052FC27
:10040000802300249B0105A90E48059306940794B8
:1004100000F098FB022305A9FF33280005930694FA
:10042000079400F08FFB012305A928000596069389
:100430000794089400F086FB0AB070BD00100240DB
:10044000000400480008004810B5134B134C01226B
:100450002360134B200063600023E260A3602361EC
:100460006361A361E361236200F022FC002801D0F4
:1004700000F084F90021200000F070FC002801D079
:1004800000F07CF90021200000F08EFC002801D053
:1004900000F074F910BDC0460054004084110020E3
:1004A0000E09002010B5040088B01422002103A812
:1004B00003F0A3FF134B22689A4220D18021124CF3
:1004C000C902626911480A436261636903220B40F1
:1004D0000193019B90239B000393122303A9049390
:1004E000113B05930692079300F02CFB8021E269F3
:1004F00089030A43E261E3690B400293029B08B05F
:1005000010BDC046005400400010024000040048E6
:1005100030B532248FB02200002101A803F06DFF16
:100520000E4A0F4901A803F071FF0E4DC2B26423B9
:1005300001A9280002F07CF92200002101A803F0A3
:100540005CFFFA2322009B0001A9280002F0D6F9E3
:10055000210001A803F006FD0FB030BDB74D000823
:10056000C44D000810120020F0B589B006000F003D
:100570001E220021684603F040FF1349684603F03D
:1005800067FF041E01D009B0F0BD21001E2268469D
:1005900003F033FF3B0032000C49684603F036FF9E
:1005A0000B4DC2B264236946280002F041F92100D4
:1005B0001E22684603F021FFC8231E226946280038
:1005C00002F09CF9D9E7C046E04D0008C94D00088B
:1005D00010120020F0B58FB006000F00322200216B
:1005E00001A803F00AFF04251C4901A803F030FF0D
:1005F000011E2AD1322201A803F0FFFE002F26D0CF
:100600003B003200164901A803F000FFC4B23221BA
:1006100001A803F0A7FCA2B2124C642301A9200098
:1006200002F006F93222002101A803F0E6FE013DA6
:10063000C823322201A9200002F060F9EDB2322174
:1006400001A803F08FFC002DCED10FB0F0BD320019
:10065000054901A803F0DAFED8E7C046E04D0008DE
:10066000C14D000810120020C44D000830B53224DE
:100670008FB02200002101A803F0BFFE0E4A0F49EF
:1006800001A803F0C3FE0E4DC2B2642301A92800E5
:1006900002F0CEF82200002101A803F0AEFEFA23FA
:1006A00022009B0001A9280002F028F9210001A8DE
:1006B00003F058FC0FB030BDA94D0008C44D000830
:1006C0001012002030B5102497B0302200210AA863
:1006D00003F093FE2200002101A803F08EFE1422F5
:1006E000002105A803F089FE03230A9380235B02FF
:1006F0001393802301250E945B030E3C0AA81294E9
:1007000014930B950D9501F07BFA072302940024B6
:10071000290001A801930394049401F089FC054B7E
:1007200005A8059380230894099301F043FD17B0B1
:1007300030BDC0462000020010B500F087F9FFF779
:10074000C1FFFFF729FEFFF77FFE00F0E3F800F09E
:10075000FDF8FFF7FDFD02F00AFFFEE7034B02681C
:1007600010B59A4201D100F081F910BD002C014072
:100770000122014B1A707047801100207047000061
:1007800007B501200B4B99690143996180219A6952
:10079000490502400092009ADA6903380A43DA6197
:1007A000DB6900220B4001930321019B00F06CF9EF
:1007B00007BDC0460010024010B5010086B00022FF
:1007C0000D2000F061F90D2000F08EF98020144A10
:1007D0000001916901439161936969460340019366
:1007E00002A8019B01F0CAFC01F0B8FC0D4C0E4BB5
:1007F0000E4923600E4BE360FFF79AFC002301389B
:10080000606020002361A36001F05CFE0300012012
:10081000002B02D1200001F05AFD06B010BDC046E9
:1008200000100240D0110020002C014040420F0077
:10083000E70300007047FEE710B5024801F055FDE0
:1008400010BDC046D011002010B5024802F054F986
:1008500010BDC0468012002010B5024802F04CF9CD
:1008600010BDC0461012002010B5024800F074FF01
:1008700010BDC046E81E00200A4B10B519680200E2
:10088000002901D1084919606946186882188A420E
:1008900006D903F07FFD0C2303600120404210BD08
:1008A0001A60FCE7040200200C2100200121134BF8
:1008B00013481A680A431A605A6802405A601A6854
:1008C000104802401A601A680F4802401A605A68BD
:1008D0000E4802400F205A60DA6A8243DA621A6BCD
:1008E0000B4802401A638022186B02431A635A6B4A
:1008F0008A435A6300229A607047C0460010024043
:100900000CB8FF08FFFFF6FEFFFFFBFFFFFFC0FF75
:100910006CFEFFFF0B480C4B10B5036096231B02C7
:1009200043600C22002342618360C36003618361E2
:10093000C3610362436201F00DFF002801D0FFF79D
:100940001DFF10BD80120020004400400B480C4BDE
:1009500010B50360E1231B0243600C2200234261B7
:100960008360C36003618361C3610362436201F01A
:10097000F1FE002801D0FFF701FF10BD101200208A
:100980000048004010B504008AB01422002105A8D8
:1009900003F033FD2368294A934227D18022284B54
:1009A0009202D96990201143D961D9690324114079
:1009B000019101995969C005114359615B6905A904
:1009C0001A400292029B0C2305930A3B0693013BBB
:1009D0000993089400F0B6F81C200022210000F0D2
:1009E00053F81C2000F080F80AB010BD154A93425D
:1009F000FAD18022124BD202D96903241143D96162
:100A0000D9691148114003910399596911435961FA
:100A10005B6905A91A400492049BC0231B0105933E
:100A200002230693DB180993089400F08BF81D202D
:100A30000022210000F028F81D20D3E700440040E8
:100A40000010024000480040000400481023064AFD
:100A500010B5116800200B431360FFF7ADFEFFF7E0
:100A60008FFE002010BDC04600200240024A1368DD
:100A7000013313607047C046F0120020014B186824
:100A80007047C046F012002070B58901002814DAC2
:100A90000F23C0B20340083B114A9B089B009B18E0
:100AA000032210409040FC321500114085408140E7
:100AB000DC69AC432143D96170BD0325830828401C
:100AC000A840FC352E00074A9B009B18C022864098
:100AD0002940814092009C58B44321439950EBE750
:100AE00000ED00E000E100E01F2318401E3B8340C2
:100AF000014A13607047C04600E100E070B5841CF5
:100B0000E37F022B04D004238363033B180070BDF2
:100B10000E210368056C1A688A431A60012219685D
:100B2000914319601100A940C36B5960E27700241A
:100B30008318426BDC771300A242E7D09047230072
:100B4000E4E70000F0B50B6887B002930023019141
:100B5000029ADA4001D107B0F0BD01229A40039217
:100B60000399029A0A40009200D18CE0019A102168
:100B7000526816008E43022E0ED107251D40AD008F
:100B80000139A940DC08A4000419276A8F430199A0
:100B90000969A9400F43276203245F00BC40E44376
:100BA0000568013E2540AC4603251540BD40614621
:100BB0000D430560012E0FD801998668CD68264047
:100BC000BD40354385604668039915098E43012170
:100BD0000D409D4035434560C56801992C408D68A6
:100BE0008021BD4049052C43C4600A424BD00121FD
:100BF000264C0326A5691E400D43A561A4699D08E6
:100C00000C400594059C0F242149AD00B6006D18D9
:100C1000B4409021AF68C905A743002488420CD096
:100C20001C490134884208D01B490134884204D051
:100C30001A490334884200D1023CB44000993C4335
:100C40000E00AC60164CCD4327683E43D10301D45F
:100C50003E002E4026606768009E3E43910301D40B
:100C60003E002E406660A768009E3E43D10201D43C
:100C70003E002E40A660E668009F3743920201D4F2
:100C80002E403700E760013362E7C04600100240A3
:100C9000000001400004004800080048000C004823
:100CA00000040140002A01D0816170478162FCE7A5
:100CB00070B504000120002C3FD0250041352B7871
:100CC000DBB2002B05D12200403213702000FFF769
:100CD000E9FB242301212B702368E0681A68A668C9
:100CE0008A431A6061681A4A0A401A619968194A67
:100CF00011409960012821D1802109023143996076
:100D00005868154901435960D96800200A40DA60E3
:100D1000616922690A43A16909020A43DA60216A0A
:100D2000E2690A431A60012219680A431A60202303
:100D300060642B7020634234207070BD84210902EE
:100D4000314399600228DBD1802109015960D7E73E
:100D5000FFFFFFF0FF7FFFFF00800002F0B50400FF
:100D6000413422780300D2B20220202A18D11D007B
:100D700040352E78012E13D01B68223020701E685B
:100D8000233886431E601E68064F3E401E601E6864
:100D900031431960196808431860002022702870D8
:100DA000F0BDC046FFEFFFFFF0B5050041352A78E2
:100DB0000300D2B20220202A17D11C00403426782A
:100DC000012E12D01B68223028701E6823388643FB
:100DD0001E601E68054F09023E40314319601968C4
:100DE0000843186000202A702070F0BDFFF0FFFF5C
:100DF00070B504000120002C2BD0EA25FF35635D7F
:100E0000DBB2002B05D1F4225200A354200003F0E2
:100E100037F903230022635523001100012660687F
:100E20002833824216D10021230008000933FF3302
:100E30008A4218D10020012123689A1C9E1D50333C
:100E4000D187D087F08718800B4BD387631DD87765
:100E5000615570BD1A705E70D970D96019615961A1
:100E600001321C33DDE719705870D870D8601861F2
:100E7000586101311C33DBE700BFFFFF80210368AD
:100E8000090258331A8800200A431A807047F42256
:100E900010B55200835C04000220012B09D001230D
:100EA000A354002906D1236880314C3319800020D7
:100EB000A05410BD631DD977F9E70000F0B585B0E7
:100EC000019048B21C24002825DA7F250D406C4390
:100ED0002834019DC00F2C197F25E370F42329408D
:100EE000217001996070E2605B00C95C02200129F9
:100EF00000D1ECE0012101988A4DC154E078019BBA
:100F00001B68032814D82178874E89005918FFF7E9
:100F1000FBF806490B454C430934FF34D9E70888F0
:100F20003040824E064302E0088806402E430E8081
:100F300026787F4FB000181801882E4339400E43A1
:100F40000680A07A2178BC46002865D11E00607812
:100F500050360390A08802900398002826D032884B
:100F6000C900591889188022D200891801220298D4
:100F700090430880227892009A181188480603D579
:100F80000F406C490F43178022786B4992009B18E1
:100F90001A88114020224A40154392E008883040C8
:100FA000664EBFE708883040654EBBE73788C9000A
:100FB000C91901276348591809180298B8430880CD
:100FC00021783088C90009185F48181809183E2A86
:100FD0001CD95009D20601D1013880B25B4A800287
:100FE00010430880227892009A181188480404D58A
:100FF00060460140564801431180227855499200CD
:101000009B181A881140C0229201C4E750083A4246
:1010100000D001308002E4E7890059180A884E4860
:10102000454F10404D4A024318000A802278503044
:101030000188D200521880219A18C9005218012143
:10104000E6888E431680802622780088D2009A187F
:1010500012183C48F6011218208988431080227823
:10106000617892009A18002933D11188314204D056
:101070006046014036480143118022782D49920094
:101080009A181088460603D56646304008431080FB
:101090006646227892009A181088304001431180E9
:1010A00022782C4992009A1810880840C0218901A2
:1010B000414029431180227892009B181A881740DA
:1010C0003D431D80F4230020019A5B00D05405B0FD
:1010D000F0BD11881E48314203D0664631400143BD
:1010E0001180227892009A1811884E0604D566461F
:1010F0003140104E314311806646227892009A1892
:101100001188314008431080227892009A18118883
:101110000F402F43178022780E4992009B181A889F
:101120000A4039E78080FFFF0F0900008082FFFF3F
:101130000F0F0000C080FFFFBF8FFFFF8086FFFF03
:101140008084FFFF04040000060400000080FFFF0D
:1011500080C0FFFF8FBFFFFF0F0E00008081FFFFE9
:101160004AB2F0B51C230500002A31DA7F2008407E
:1011700043432833EB187F20D20F5A70F4220140EA
:1011800019705200A95C7D38012920D00121A95491
:10119000987A5E7829681A783B4C002829D1920009
:1011A0008A181088002E17D0460604D5374E3040D6
:1011B000374E304310801B78364A9B00C9180B8885
:1011C00013401C43F42300205B000C80E854F0BD66
:1011D0004B430933FF33CDE7460404D52B4E304053
:1011E0002D4E304310801B782C4A9B00C9180B8869
:1011F000E6E7802792002548FF018A18002E22D1B9
:1012000016883E4203D0244F06403E4316801A788B
:101210001F4E92008A181788B4467E0603D566468C
:1012200007403743178066461A7892008A18178855
:101230003840064316801A78184E92008A18108893
:1012400030402043B6E716883E4203D0124F064096
:101250003E4316801A7892008A181688770603D5BE
:101260000B4F06403E4316801A780B4F92008A18A7
:1012700016883040074317801A78064E92008A1865
:10128000108830402043ADE78080FFFF0F0F000043
:10129000C080FFFFBF8FFFFF80C0FFFF8FBFFFFF3A
:1012A000F0B57F242140633C27004F43C7193D0020
:1012B0000026FC35FF37EA612B626E62BE727972DE
:1012C000AA6993422FD99B1A2B624C430419FF340D
:1012D000E57C0368002D29D11D0050352E88657AE4
:1012E000ED00AD19394C1C192D193E2A59D9540954
:1012F000A4B2D20601D1013CA4B2354AA4021443DF
:101300002C801C2251434018FF30427A92009B18D7
:101310001988304A00201140C022920151402E4AC3
:101320000A431A80F0BD2E621A00CEE7A57A002D7E
:101330002AD11D0050352E88657A284CED00AD1954
:101340001C192D193E2A17D95409A4B2D60601D169
:10135000013CA4B21E4EA40234432C801C264E43F2
:101360008619FF36B47A002C23D11C00757A5034CC
:101370002488ED002D19B5E75408A4B2D60701D58D
:101380000134A4B2A402E8E7012DE7D11D00647A7C
:1013900050352D88E4001C196419104D6419228001
:1013A000DCE75408A4B2D20701D50134A4B2A402E8
:1013B000A6E7012CA5D11C0050342588747AE400DE
:1013C0001C196419014D641922809AE70604000073
:1013D0000080FFFF8FBFFFFF8080FFFF020400003F
:1013E0007F230B401C2159434018FC30406A80B2D7
:1013F00070470000F42310B55B00C45C02000220BB
:10140000012C21D00138D054CD3B48B2FF3B0028FD
:101410001BDA7F240C40634328330124D3189C70CB
:101420007E342140C40F5C7019701368114C002980
:101430000FD1198810480840104941400C431C80C6
:10144000F42300205B00D05410BD4B430933FF331D
:10145000E3E7890059180B88002806DA0848184085
:10146000102343401C430C80EAE7064818408023C1
:101470005B01F6E78080FFFFBFBFFFFF1010000099
:10148000BF8FFFFF8FBFFFFF4AB270B51C23040060
:10149000002A32DA7F200840434328330020E31833
:1014A000D20F5A70F42298707F30014019705200A8
:1014B000A15C7D3801291FD00121A1541A78206830
:1014C0005D78920017498218002D1AD015886E0693
:1014D00004D5154E3540154E354315801B789B00BD
:1014E000C3181A8812481040302242401143198014
:1014F000F42300205B00E05470BD4B430933FF33FD
:10150000CCE715886E0404D5074E3540094E3543A7
:1015100015801B789B00C3181A8807481040C0220A
:101520009201E2E78080FFFF0F0F0000C080FFFF05
:10153000BF8FFFFF80C0FFFF8FBFFFFF30B580244C
:10154000E40000198218080001335B08002B00D169
:1015500030BD4478057824022C43451AAC52023041
:10156000013BF3E7F8B57F250D401C21040008007E
:101570006843201882630200002601272932C363D2
:101580000664013A57701570426B93422ED99B1A2C
:10159000C363694361180B000F0032331B7896B2A6
:1015A0002837002B25D18A8D3300896B2068FFF7FF
:1015B000C5FF23681A00503211883A78D2009B1870
:1015C000504A5B189B181E801C214D436519283515
:1015D0002A78236892009B1819884B4A00201140F2
:1015E00030225140494A0A431A80F8BDC6631A00A6
:1015F000CFE73B7820689F003F5A293109787F0662
:1016000045D5002937D1010050310988DB005B182E
:101610003F4941185B183E2A25D9510989B2D206A3
:1016200001D1013989B23B4A8902114319801C2337
:101630006B43E3181A8E1C276F43E7193300B96B0D
:10164000FFF77CFF3B0029331B782168002B4DD12D
:1016500028373B789B00CB181A882F4911402F4A16
:101660000A431A80B0E7510889B2D20701D5013187
:1016700089B28902DAE70129D9D1010050310988FC
:10168000DB00C3185B1822495B181A80CFE70029DA
:1016900020D1010050310988DB005B18194941183D
:1016A0005B183E2A0ED9510989B2D20601D10139FF
:1016B00089B2184A8902114319801C236B43E3182D
:1016C000DA8DB8E7510889B2D20701D5013189B264
:1016D0008902F1E70129F0D1010050310988DB00CE
:1016E000C3185B1807495B181A80E6E7012B00D086
:1016F0006AE728373A7892008B181A880649114011
:10170000074AADE702040000BF8FFFFF8080FFFFA4
:10171000060400000080FFFF0F0F0000C080FFFFE5
:1017200080C0FFFF70B58025ED0040195C0882186D
:1017300026000800002E07D1640009191219DB07E2
:1017400001D513880B7070BD451AAD5A013E057066
:101750002D0A45700230EDE7F0B5036885B0063319
:10176000DB8F04001BB2002B00DA61E02368063334
:10177000DA8F52050AD5DA8F864920000A40DA87C7
:1017800002F0C2FC00212000FFF781FB2368991DB5
:10179000CA8F520403D5CA8F7F480240CA87CA8FB6
:1017A000920403D5CA8F7D480240CA87CA8FD204EB
:1017B0000FD504210233DA8F20008A43DA87784A72
:1017C000DA8702F0C5FC236876490633DA8F0A40CF
:1017D000DA8723689A1DD18F090512D5D18F7248F7
:1017E00002330140D1870821D88F0143D9870421D2
:1017F000D88F0143D987D38FDB0402D4200002F0B5
:1018000095FC23680633DA8F920506D5DA8F67498F
:1018100020000A40DA8702F070FC23680633DA8F72
:10182000D20503D5DA8F62490A40DA8705B0F0BDE8
:1018300002AB9F1D00233B80206803AA831DDB8F22
:101840009BB213801BB2002B00DB8FE70F2316889F
:101850001E4000D0BCE010211388194003880029E5
:1018600026D1544A13400380030050331A882300C2
:1018700028331B78DB00C0184F4B8018C018038832
:10188000A26B9B059B0D2364D318A363200002F079
:1018900029FC631DDA7F002ACED0E06B0028CBD173
:1018A0008022D97F114322684C321180D877C3E758
:1018B0003B803A88120520D5030050331A888423D0
:1018C0005B00E35C2100DB00C3189B183B4AED3151
:1018D0009B1822001B8809329B059B0DFF329361E8
:1018E000FF319288FFF71EFF2268354913882000D8
:1018F0000B40138002F0E0FB9EE73A8812B2002A08
:101900009ADA2F4A250013400380030050331A88C7
:1019100084235B00E35C0935DB00C3189B18274A6E
:10192000FF359B181B889B059B0DAB6107D0AA88D0
:101930002969FFF7F7FE2B69AA699B182B61002123
:10194000200002F0C3FB22681C49130050331B889F
:10195000E8685118C9183E2813D943099BB2C0063C
:1019600001D1013B9BB217489B0203430B801188B6
:10197000154B1940C0239B015940144B0B43138056
:101980005AE743089BB2C00701D501339BB29B02C3
:10199000ECE7C046FFFBFFFFFFBFFFFFFFDFFFFFDE
:1019A00000BDFFFFFFEFFFFFFFF7FFFFFFFDFFFFA2
:1019B000FFFEFFFF0F8FFFFF020400000604000080
:1019C0008F0F00000080FFFF8FBFFFFF8080FFFFB1
:1019D000B300C11801930B883B803A8812B2002AE9
:1019E0003CDA734A13400B801C21714361180B00D1
:1019F0000200FF33DD7C50325B7A002D73D11288F8
:101A0000DB00C3189B186B4A9B181D88AD05AD0DF4
:101A100007D00B00FC31FE33DA89C9692B00FFF7D0
:101A200081FE1C210800704320180200FC32536A1A
:101A30005B195362D3699C46AC446346D361136A15
:101A4000002B03D09269954200D37BE00B007343D7
:101A5000E318FF33597A200002F038FB80223B88DC
:101A6000134200D1E8E62068B300C3181A8852492F
:101A70000A401C21714361181A800B0002003233A6
:101A80001D7850320A3B002D63D11B781288DB0091
:101A9000C3189B18494A9B181B889B059B0D0B6418
:101AA00003D08A8D896BFFF749FD226813005033FC
:101AB00018881C235E43A619310028310B78DB00FF
:101AC000D3183E4A1B189B181A88B36B9205920DC7
:101AD00032649A18F36BB26309782000002B64D14A
:101AE00002F000FBA8E69D001288DB002D5AC31807
:101AF0009B186D041CD5314A9B181D88AD05AD0D92
:101B000007D00B00FE331A8AFC312B00C969FFF79E
:101B100009FE1C237343E318FF335B7A22689B00A2
:101B2000D3181A8826491140264A0A431A8078E7B2
:101B3000204A9B181D88AD05AD0DEAD00B00FE3381
:101B40005A8AE1E7FF30417A62462000FFF7A8FB9E
:101B500084E71B7812889D002D5ADB00C3189B1860
:101B60006D0619D5154A9B181B889B059B0D0B64A8
:101B700003D0CA8D896BFFF7E1FC1C237343E31884
:101B800028331B7822689B00D1180B880C4A1A4016
:101B90000D4B13430B8088E7064A9B181B889B0557
:101BA0009B0D0B64E9D00A8EE4E7FFF7DBFC43E60C
:101BB0008F0F0000060400000F8FFFFF02040000DB
:101BC0000F0F0000C080FFFF80C0FFFF30B51C2456
:101BD0000D060AD57F252940614328314118002A86
:101BE00007D18A728B80002030BD61430931FF31FB
:101BF000F4E70122CB801B0C8A720B81F3E7000013
:101C0000F0B5036885B00500DB072FD42B689B0770
:101C100000D586E02B681B0700D5C6E02B685B0764
:101C200000D5E9E02B68DB061AD56A69BA4C0423B3
:101C3000012A00D055E1616B02260B436363636B9D
:101C40001A436263FEF71AFF0700636B334200D149
:101C500040E1F821626BAB698A43DB0013436363A5
:101C6000296A002900D063E1002018E00C21AA4C69
:101C700062680A40042A0BD063680B40082B10D11D
:101C8000C02263685202134080225202934208D15C
:101C900023689B03BAD56B68002BB7D1012005B030
:101CA000F0BD6B68012B13D1802322685B021343C4
:101CB0002360FEF7E3FE80260700B6022368334266
:101CC000A4D1FEF7DBFEC01B6428F7D90320E6E7AA
:101CD000002B16D12368914A802613402360236885
:101CE0008F4AB60213402360FEF7C8FE0700236840
:101CF000334200D18AE7FEF7C1FEC01B6428F6D943
:101D0000E4E7052B05D180232268DB02134323601F
:101D1000CAE72368814A134023602368804A13403E
:101D2000C6E70C227C4C636813420BD063681340F7
:101D3000082B15D1C0226368520213408022120280
:101D400093420DD123689B0702D5EB68012BA5D1E7
:101D5000F82122682B698A43DB001343236059E78B
:101D6000EA680123002A0FD0226802261343236069
:101D7000FEF784FE070023683342E9D1FEF77EFEBA
:101D8000C01B0228F7D9A1E7226802269A432260E5
:101D9000FEF774FE07002368334200D13AE7FEF7EE
:101DA0006DFEC01B0228F6D990E7EA6901235A4C60
:101DB000002A10D0626A022613436362FEF75EFEB9
:101DC0000700636A334200D028E7FEF757FEC01BC6
:101DD0000228F6D97AE7626A02269A436262FEF71F
:101DE0004DFE0700636A334200D117E7FEF746FE57
:101DF000C01B0228F6D969E780220021464C520513
:101E0000E3690091134208D1E3691343E361E36995
:101E100013400393039B012300938027414E7F00CF
:101E200033683B4206D0AB68012B13D1226A1343BF
:101E3000236230E033683B433360FEF71FFE0190BE
:101E400033683B42EFD1FEF719FE019BC01A6428AC
:101E5000F6D93BE70122002B14D1236A02279343D2
:101E60002362236A033293432362FEF707FE0600D0
:101E7000236A3B4225D0FEF701FE2B4B801B984284
:101E8000F6D923E7052B0BD1216A013B0B432362D3
:101E9000236A1A432262FEF7F1FD022706000DE0D5
:101EA000236A934304222362236A9343C0E7FEF725
:101EB000E5FD1D4B801B984200D907E7236A3B4292
:101EC000F5D0009B012B00D0ACE6E369174A134024
:101ED000E361A7E6FEF7D2FDC01B022800D8B4E6F6
:101EE000F4E6053203D1626B9A436263B1E6626B3A
:101EF0000226134301226363636B93436363FEF71C
:101F0000BDFD0700636B334200D1A9E6FEF7B6FDC5
:101F1000C01B0228F6D9D9E600100240FFFFFEFFE1
:101F2000FFFFFBFF0070004088130000FFFFFFEF82
:101F30000C22264C012063681340082B00D1AEE62A
:101F40002368234A1340236002292FD1FEF796FD10
:101F500080260700B6042368334221D10F22E36AAA
:101F60009343EA6A1343E362696AAB6A62680B43AC
:101F7000184980250A4013436360802322685B046C
:101F800013432360FEF77AFD0600AD0423682B425D
:101F900000D069E6FEF772FD801B0228F6D995E6AF
:101FA000FEF76CFDC01B0228D5D98FE6FEF766FD53
:101FB00080250600AD0423682B4200D154E6FEF7CD
:101FC0005DFD801B0228F6D980E6C0460010024065
:101FD000FFFFFFFEFF7FC2FF30B5124D89B0102218
:101FE0002900684602F000FA290004AC10311022E2
:101FF000200002F0F9F90C220B494B681A40082A1C
:102000000DD1CA6A0F2168469B0C0B400A40C55C83
:10201000A15C0648FEF78CF8684309B030BD034860
:10202000FBE7C046AC4C00080010024000127A00EA
:10203000F7B50122434C060023680F0013408B4282
:102040001CD33268930723D4D30729D401232268F1
:102050001A40974267D333683B4C5B076AD4FFF75B
:10206000BBFF6368394A1B061B0FD35CD840384B53
:1020700018600020FEF7A0FB002008E023689343CF
:102080000B432360236813409942DAD00120FEBD40
:10209000F0202D494B688343B06803434B60D3E77E
:1020A000294D72682B68012A1AD19B03EED50321B2
:1020B0006B688B4313436B60FEF7E0FC7368019021
:1020C000012B15D10C226B681340042BBED0FEF7F8
:1020D000D5FC019BC01A1F4B9842F3D90320D6E7C9
:1020E000022A02D19B01E2D4D0E79B07DFD4CDE7DF
:1020F000022B12D00C226B681342A7D0FEF7BEFC55
:10210000019BC01A134B9842F4D9E7E7FEF7B6FCDF
:10211000019BC01A0F4B9842E0D80C226B68134009
:10212000082BF3D192E722689A43226022681A4270
:10213000ACD190E76368084A1340F26813436360C8
:102140008DE7C0460020024000100240E34D000829
:102150000C00002088130000FFF8FFFF044B054A25
:102160005B685B055B0FD35C034A1068D84070471F
:1021700000100240F34D00080C000020072310B5AA
:1021800003240360094B5A68224042605A68ED34C8
:1021900022408260E0225B68D20013400122C360CB
:1021A000034B1B6813400B6010BDC046001002407B
:1021B00000200240F0B5036885B00500DB0328D598
:1021C000802200213B4C5205E3690091134208D163
:1021D000E3691343E361E36913400393039B012322
:1021E00000938027344E7F0033683B422FD0C022BB
:1021F000236A92001340314E3BD1236A1E406B6824
:102200001E43009B2662012B03D1E3692C4A134035
:10221000E3612A68D30706D5032026490B6B834365
:10222000A86803430B63930606D5102021490B6B66
:102230008343E86803430B630020930317D5802191
:102240001C4A136B8B4329690B4313630FE03368FC
:102250003B433360FEF712FC019033683B42C6D12A
:10226000FEF70CFC019BC01A6428F6D9032005B0C8
:10227000F0BD69680A409342BFD08023226A206A79
:1022800011005B0203432362236A0E48314003407E
:1022900023622162D307B0D5FEF7F0FB07000222CC
:1022A000236A1342A9D1FEF7E9FB074BC01B9842F2
:1022B000F5D9DBE70010024000700040FFFCFFFF93
:1022C000FFFFFFEFFFFFFEFF8813000070470122B2
:1022D0000368D96800201143D96019680A431A605D
:1022E000704770477047704770470222036810B507
:1022F0001969040011420ED0D96811420BD0053A79
:102300001A619B69043202779B0700D179E0FFF7DD
:10231000E9FF00232377042223681969114210D0B2
:10232000D96811420DD0093A1A61073222779A69A9
:10233000C0239B0020001A4269D0FFF7D3FF00237F
:10234000237708222368196911420ED0D9681142F7
:102350000BD0113A1A61DB690D32227720009B07FE
:102360005BD0FFF7BFFF0023237710222368196992
:10237000114210D0D96811420DD0213A1A61193298
:102380002277DA69C0239B0020001A424BD0FFF766
:10239000A9FF00232377012223681969114207D07E
:1023A000D968114204D0033A1A612000FEF7D6F929
:1023B000802223681969114208D0D968114205D0DA
:1023C000023AFF3A1A61200000F098F84022236890
:1023D0001969114207D0D968114204D0813A1A61B3
:1023E0002000FFF781FF202223681969114207D0DE
:1023F000D968114204D0413A1A61200000F07DF8FA
:1024000010BDFFF76EFF2000FFF76DFF81E7FFF7BC
:1024100068FF2000FFF767FF91E7FFF762FF2000EA
:10242000FFF761FF9FE7FFF75CFF2000FFF75BFF0F
:10243000AFE700001C4A10B50368904202D01B4C65
:10244000A04208D17024A3434C68234390420ED08D
:10245000164CA0420BD0164CA04208D0154CA042FE
:1024600005D0154CA04202D0144CA04203D1144C0C
:102470002340CC6823438024A3434C692343036057
:102480008B68C3620B688362904208D0094B984204
:1024900005D0094B984202D0084B984201D10B69F4
:1024A00003630123436110BD002C01400004004080
:1024B000002000400040014000440140004801402D
:1024C000FFFCFFFF70B504000120002C14D0250094
:1024D0003D352B78DBB2002B05D122003C32137046
:1024E0002000FFF7F3FE022320682B70211DFFF769
:1024F000A1FF012300202B7070BD704770470000C2
:10250000036806491A686A300A401A609A682331DB
:10251000FF318A439A60202303707047DFFEFFFF7C
:1025200070477047406A0023020010B55A3213808A
:10253000083A1380FFF7F5FF10BD000070B50400E6
:102540000568C26983680069296803436069424E6F
:1025500003434248134301400B432B606B684049DF
:10256000206A0B40E1680B436B60A369A9680343D1
:102570003C4801400B43AB6080231B02B54210D1A5
:1025800003203949096B01403848405C9A4237D1F1
:10259000082832D8FDF7B8FD103116312931313114
:1025A0002C0033498D4205D032498D4202D0324948
:1025B0008D424CD19A422CD1FFF7D0FD6368400088
:1025C0005B0802E0636858082C4BC0186168FDF78F
:1025D000AFFD83B200200F22190091430A001B07B0
:1025E00021685B0F1343CB6070BDFFF7F5FCE5E797
:1025F0006368580880235B02E7E701200023EAE7CD
:10260000082826D8FDF780FD052510251925252544
:102610001E00FFF7A3FD61684B081818FDF788FD41
:1026200080B2E8600020DFE76168154B4808C018F9
:10263000FDF77EFD80B2F060F4E7FFF7CDFC616846
:102640004B08F4E7802361681B024808EFE79A42D1
:10265000D3D00120C8E7C04600380140F369FFEF3E
:10266000FFCFFFFFFFF4FFFF00100240FB4D00080B
:102670000044004000480040004C00400024F400AA
:1026800000127A00436A30B5DA0706D50168284C93
:102690004A682240846A22434A609A0706D5016844
:1026A000244C4A682240C46A22434A605A0706D52D
:1026B0000168214C4A682240046B22434A601A0791
:1026C00006D501681D4C4A682240446B22434A608B
:1026D000DA0606D501681A4C8A682240846B2243C8
:1026E0008A609A0606D50168164C8A682240C46B37
:1026F00022438A605A0610D50168134D4A68046C5B
:102700002A4022434A6080225203944205D14A68FB
:102710000E4C2240446C22434A601B0606D50268D8
:102720000B4953680B40816C0B43536030BDC0466E
:10273000FFFFFDFFFFFFFEFFFFFFFBFFFF7FFFFF30
:10274000FFEFFFFFFFDFFFFFFFFFEFFFFFFF9FFF39
:10275000FFFFF7FF70B5041E01D1012070BD050019
:1027600069352B78DBB2002B04D10200683213707C
:10277000FEF708F92423012122682B70136820003A
:102780008B431360FFF7DAFE0128E6D0636A002B63
:1027900002D02000FFF776FF23680B495A6800201B
:1027A0000A4008215A609A688A439A60012219688F
:1027B0000A431A6022002023E0666A3268342B70D4
:1027C00013702070CAE7C046FFF7FFFFF8B504009A
:1027D0000E0015001F002268D36933409B1B59422D
:1027E0004B41AB4201D0002018E0069B0133F3D0EF
:1027F000069B002B13D123680C491A6803200A405A
:102800001A609A68A331FF318A439A60220020231C
:10281000693213705370002368342370F8BDFEF7DB
:102820002DF9069BC01B8342D5D2E4E75FFEFFFF74
:10283000F0B5070085B0039369373B7804000D00BD
:1028400016000220202B46D10138002943D0002A4F
:1028500041D08023A2685B019A4204D12369002BF6
:1028600001D1014237D1230068331A780220012AAE
:1028700031D001221A700023E36621333B70FEF74A
:10288000FDF8230050331E805E8080260290760182
:10289000210052310A8892B2002A0DD1039B4021B7
:1028A00000932000029BFFF791FF002812D1202304
:1028B00068343B7020700EE00B880022013B9BB215
:1028C0000B80039B802100932000029BFFF77EFF7B
:1028D000002802D0032005B0F0BDA3682268B342EF
:1028E00008D12369002B05D12B880235DB05DB0DD0
:1028F0001385CDE72B7801351385C9E7F0B51F00A7
:1029000003006A3316001A78040085B00D00022017
:10291000202A39D10138002936D0002E34D0802227
:10292000A1685201914204D12269002A01D10542D5
:102930002AD12200683211780220012924D00121F5
:1029400011700022E26622321A70FEF797F8230017
:102950008021A26858331E805E80039049010433B1
:102960008A4215D12269002A10D1234A1A801E8872
:1029700022005A32108880B2002819D12300202268
:102980006A3368341A70207005B0F0BDFF22EDE79D
:10299000002A04D12269002AF8D07F22E6E78021AC
:1029A00049058A42E3D12269002AF6D03F22DDE7B9
:1029B00013882021013B9BB2138020000097039BCA
:1029C0000022FFF703FF002813D1A268236811003B
:1029D00080225201914207D12269002A04D19B8CA6
:1029E00033402B800235C3E79B8C33402B7001357D
:1029F000BEE70320C8E7C046FF010000030030B572
:102A000069331B7802000220212B0FD114005234AD
:102A1000238811689BB2002B09D10A687E3082435B
:102A20000A604022086802430A60002030BD80200E
:102A300095684001D36C85420DD1106900280AD1F8
:102A400018880233C005C00D0885D3642388013B74
:102A50009BB22380E9E7581CD0641B780B85F5E70F
:102A60004021026810B513688B43136003002022D5
:102A700069331A70FFF754FD002010BD020070B5D5
:102A80006A321178036822292DD1010080245C313B
:102A90000D88998C640129408568436DA5421ED13B
:102AA0000469002C1BD11980023343650100002406
:102AB0005A310B88013B9BB20B80A3420DD10368B6
:102AC0000C4D19682940196099682335FF35A943D1
:102AD000996020231370FDF74BFE200070BD5C1C35
:102AE00044651970E2E70822996902240A439A6151
:102AF000F3E7C046DFFEFFFF0F2270B50400006859
:102B0000C36901681A4008D120252B4205D029420B
:102B100003D02000FFF7B2FF70BD8568002A60D0A7
:102B20000122154003D190267600314259D013423C
:102B300005D0CE0503D50262E66E3243E26602227C
:102B4000134206D0002D04D00262E66E9218324382
:102B5000E2660422134206D0002D04D00262E66E23
:102B6000023A3243E2661A0708D58A0601D4002DDC
:102B700004D008220262E06E0243E266E26E002A9E
:102B8000CAD02022134204D0114202D02000FFF705
:102B900075FFE36E20001B0704D423689D68402363
:102BA0001D401AD0FFF7ACFC402123689A680A4206
:102BB0000FD09A68606E8A439A60002809D0134B40
:102BC0004363FDF79BFF0028A6D0606E436B9847D8
:102BD000A2E72000FFF7A5FC9EE7FFF7A2FCE56651
:102BE0009AE78022134205D0114203D02000FFF75C
:102BF00005FF91E74022134200D18DE7114200D139
:102C00008AE72000FFF72CFF86E7C046252500084D
:102C100086239B00C3580220002B03D0852200206E
:102C2000920098507047000086239B0070B5C458EE
:102C30000433C358002B0BD08025AD00605DFF2806
:102C400006D0044A9B68A25C21009847FF23635585
:102C5000002070BD0102000043230380004870473C
:102C60004800002043230380004870478C00002068
:102C70004323038000487047DC0000200A230380C0
:102C800000487047D000002070B58626B6000400CA
:102C9000855901F047FB83239B00E850A35902208C
:102CA000002B0AD0832381229B00E9181033E358BC
:102CB0009200DB68A8589847002070BD60220B780E
:102CC00070B51A4004000D00002A28D0202A1ED119
:102CD000CA884878002A1CD086215BB289006658D1
:102CE000002B0BDA87239B00E35831009B68984741
:102CF0003100EA88200000F0F4FB08E080239B000C
:102D0000F0540A4B3100F254200000F000FC002087
:102D100070BD87239B00E3589B689847F7E74B7883
:102D20000A2BF4D101220249E4E7C0460102000067
:102D30000802002070B504008625812101F07EFA8A
:102D40000121200001F07AFAAD008221200001F07B
:102D500075FA6359002B09D087239B00E3585B6801
:102D60009847605901F0EAFA00236351002070BDD2
:102D7000F8B5037C0400002B33D1802302229B0092
:102D8000812101F049FA80239B008725022201213D
:102D9000200001F041FAAD00082303228221200027
:102DA00001F03AFA8627280001F0C4FABF000600B5
:102DB000E0510120002E13D0635900251B6898476D
:102DC000852381229B00F550F551277C9200AF426C
:102DD0000ED1143BB2580121200001F093FA3800C3
:102DE000F8BD40230222812101F016FA4023CCE7EE
:102DF0004023B2580121200001F084FA2800EFE7B7
:102E00000223002903D087239B00C1500023180010
:102E1000704786239B00C35882208000195084216C
:102E2000890000205A50704786239B00C258143BEB
:102E30000020D150704786239B00C25810B5022352
:102E4000002A11D0852189005458013B002C0BD158
:102E5000535084239B00D3580C39525888399BB265
:102E6000FF3901F03FFA2300180010BD86239B00B4
:102E7000C25810B50224002A09D08121047C89009F
:102E8000002C06D15258183B012101F03BFA2000DA
:102E900010BD52584023012101F034FA0024F6E716
:102EA00010B50223002813D085239B00C458002CA2
:102EB00001D00024C450002902D084239B00C150BB
:102EC000FE2301215B00C154027001F055F900237B
:102ED000180010BD0223002903D085239B00C15098
:102EE00000231800704710B501F086F9002010BDCE
:102EF00085239B00C35810B5002B01D1022010BDC3
:102F00001B6898470028F9D1F9E7852310B59B0085
:102F1000C3585B689847002010BD000082239B00C7
:102F200070B5C5180400280000F0AAFAFA2301229F
:102F30005B00E250124BE25A163BE2501033E15C68
:102F4000EA3BFF3B0B40012B0FD0002B07D0022B9D
:102F500010D07F232000994301F080F903E029007D
:102F6000200000F0F1F8002070BD2900200000F0E2
:102F7000FDF9F8E72900200000F014FAF3E7C04655
:102F80000E02000070B504001500002927D1FA23B5
:102F90005B00C358032B0FD10530FF308368C26834
:102FA00093420BD99B1A83609A4200D91A0092B2BD
:102FB0002900200000F0BBFA002070BD85239B0093
:102FC000E3581B69002B06D0FE225200A25C032AA4
:102FD00001D120009847200000F0B1FAECE78523EA
:102FE0009B00C3589B69002BE6D0FE225200825CF6
:102FF000032AE1D19847DFE7F8B50D00040011007E
:10300000002D41D1FA235B00C358022B0ED1C269B7
:10301000066AB24213D9921BC26192B200F06FFAF3
:103020002B002A002900200001F06CF980239B006E
:10303000E25C012A01D10022E2540020F8BD876938
:1030400031003800FDF7FAF80D1E0CD1BE420AD847
:10305000FC267600A3599F4205D20A00200000F00A
:103060004EFAA551DCE785239B00E358DB68002B73
:1030700006D0FE225200A25C032A01D1200098470C
:10308000200000F068FAD1E785239B00C3585B69F4
:10309000002BD2D0FE225200825C032ACDD129001F
:1030A0009847CAE7002270B504001100402301F0E0
:1030B000B3F823004025FC335D6100222B00802102
:1030C000200001F0A9F8FE2301225B002562E254F2
:1030D0001C33E358002B06D085239B00E35821794D
:1030E0005B6820009847002070BD01740020704785
:1030F000FE23FE225B00C15CFF328154FA3AFF3AA4
:10310000C25400207047FE23FF33C25C013BC2540F
:1031100000207047FE2310B55B00C35C032B06D173
:1031200085239B00C358DB69002B00D09847002003
:1031300010BD10B50400802101F090F8002120009E
:1031400001F08CF810BD000073B5040048780D0044
:10315000092800D981E0FCF7E1FFD400F5008000E8
:10316000E700800072000A008000C30095004B88D1
:10317000180A0138062870D8FCF7C6FF041F2E6F06
:103180006F4A550084236A469B00E358207C1B68E5
:10319000911D98476B469E1D3188002970D0EA88A2
:1031A000002A6DD00B1C914200D9131C01009AB269
:1031B0003380200000F095F962E08523227C9B009B
:1031C000E358002A06D19B6A6A46901D984702235D
:1031D0004370DFE7DB6AF7E7D8B205283DD88422E1
:1031E0009200237CA258FCF78FFF03090B0D0F11EF
:1031F00052686946180006319047CBE79268F8E7B5
:10320000D268F6E71269F4E75269F2E79269F0E7EB
:10321000237C002B21D185236A469B00E358901D17
:103220005B6B9847B6E7237C002B16D185236A4653
:103230009B00E358901D1B6B98470723C8E78B88BA
:10324000002B0AD1CB88002B07D1FE264D887F3377
:1032500076001D40A35D032B03D12000FFF769FF1B
:103260000EE0FF235B00E5542900200001F02AF85E
:10327000200000F064F90223002D00D10123A355A2
:10328000002076BD8978384D29700129E5D8FE23C4
:103290005B00E25C022A0DD0032ADED1002915D1A1
:1032A00002222000E2546160FFF72FFE200000F0B0
:1032B00046F9E5E70029F9D0012103226160E254D3
:1032C0002000FFF715FE0228F0D1C6E7616801294A
:1032D000ECD0C9B22000FFF718FE29786160EFE753
:1032E000CA88012AB9D1FE235B00E35C022B03D01C
:1032F000032BB2D1211D5CE700232100A36008311C
:1033000057E7FE235B00E35C023B012BA5D80123BA
:10331000E36081239B00E358002B01D00323E3608B
:10332000210002220C3144E74B88012BA8D18122D5
:103330009200A35085239B00E35829009B6820003E
:103340009847B3E7FE235B00E35C023B012B00D907
:1033500083E74B88012B00D092E7812300229B005A
:10336000E2501033E8E7C04609020020FE2370B5A2
:103370005B00C35C04000D00032B0FD10B79012B04
:103380000CD885239B00C3589B689847EB88002B7B
:1033900002D1200000F0D3F8002070BD2000FFF71C
:1033A000C8FEF9E770B50D00040060208A882B780C
:1033B000D1B20340202B08D1F533FF33E358290065
:1033C0009B6820009847002070BD6B78012B21D0AE
:1033D000002B2FD0032BF6D1FA33FF33E35C022B03
:1033E00043D0032B03D02000FFF7A3FEEBE76B884D
:1033F000002B04D14B0602D0200000F02FFF8523C4
:103400009B00E35829009B6820009847200000F0AB
:1034100096F8D8E7FE235B00E35C022B25D0032B54
:10342000E1D16B88002BCED14B06EFD0200000F00D
:1034300025FFE4E7FE235B00E35C022B15D0032BA2
:10344000D1D17F250D402D01130614D51435200050
:10345000651900F023FF002810D001232B60022201
:103460002900200000F03DF8ADE74B06ABD020006E
:1034700000F0F4FEA7E70535FF35E8E72860EEE742
:103480000B7803704B784370CA788B7812029B18C4
:1034900043804A790B7912029B188380CA798B7911
:1034A00012029B18C3807047002330B5984201D1A7
:1034B00030BD2B00C45C5D1C002CFAD1DBB25B007C
:1034C000023313800B7003234B70013B0578002DF2
:1034D000EED05A1CCD54D2B202330130DBB28C5440
:1034E000F4E71300FA2210B50224520084500A00B7
:1034F0008361C361002100F0F5FE002010BD10B50E
:1035000013000A00002100F0EDFE002010BD1300A2
:10351000FA2210B50324520084500200FC32D3601A
:1035200013610A00002100F0EDFE002010BD10B56F
:1035300013000A00002100F0E5FE002010BDFA2370
:1035400004225B0010B5C25000231A00190000F0DD
:10355000C9FE002010BDFA2305225B0010B5C25041
:1035600000231A00190000F0CDFE002010BD10B598
:1035700000F00AFB002010BD7FB50B004668016813
:10358000028A0825455F0024842D00D0EC1C03A886
:1035900001900094300000F033FA0023012800D19C
:1035A000039B180004B070BD10B5002800D1013095
:1035B00000F002FC002010BD03000122083343602C
:1035C000C36003610023524282600360704700239E
:1035D0000361704743689A684B608A609A685160DB
:1035E00099600368086101330360704703000A684B
:1035F00030B50833541C0BD103695A684A60916096
:103600008B605960036808610133036030BD23009B
:103610005C682568AA42FAD2EFE7416882680369CC
:103620008A60826851605968884200D15A600022DD
:1036300002611A68501E186070470000034B1B6837
:10364000013301D072B6FEE772B6FEE7200100201A
:103650000B4A13681868203080F30988022080F331
:103660001488BFF36F8F3FBCAE4608BC04BC62B683
:103670001847C046C046C046C046C046C046C046C1
:10368000240E002010B58024031F64041C60043B3A
:1036900019600349043B1960143B40381A6010BD9F
:1036A0003D360008704700008022044B52051A6026
:1036B000BFF34F8FBFF36F8F7047C04604ED00E03C
:1036C00072B6044A136801331360BFF34F8FBFF320
:1036D0006F8F704720010020054A1368002B01D12D
:1036E00072B6FEE7013B1360002B00D162B6704753
:1036F00020010020EFF3108072B67047002080F3A5
:10370000108870470000000000000000000000006A
:10371000EFF309800E4B1A6820381060F0C0444661
:103720004D4656465F46F0C008B572B600F092FBB3
:1037300062B60CBC116808681030F0C8A046A946F3
:10374000B246BB4680F309882038F0C81847C04607
:10375000240E002010B5FFF7CDFF040000F046FA5C
:10376000002803D08022034B52051A602000FFF787
:10377000C6FF10BD04ED00E0FA21064B10B5186835
:103780008900FCF7D5FC0722034B01381860034B76
:103790001A6010BD0C00002014E000E010E000E012
:1037A000FF220A4B1204196810B50A431A60FF225F
:1037B000196812060A431A60FFF7DEFF0022044B65
:1037C0001A60FFF745FFFFF739FFC04620ED00E024
:1037D0002001002010B50F4B1A68824218D35C6894
:1037E0001919884203D141681800091959604168C4
:1037F0004418A24207D1084C2468A24203D054685E
:103800001268611841600260984200D0186010BDD3
:103810001300E1E71C0E00200C020020F8B50400A4
:1038200000F0DCF9384A39481368002B1ED13849BA
:103830000733194236D0CD189D43C0231B01C91848
:103840004B1B29000025334ECB18756031600726CD
:10385000083BB3431D605D605D1A136028C12E4BA9
:103860001D602E4B1D6080231B06036006683442DA
:1038700016D1002C14D02300072108330B4201D0AD
:103880008B430833002B0BD024490D68AB4207D87B
:1038900020490C686068834207D8126894420BD1B3
:1038A000002528E0C0231B01CCE72768BC46002F79
:1038B000F3D021006446EDE70A68170022680A6029
:1038C000C21A102A08D9E018410701D072B6FEE7E3
:1038D00042606360FFF77EFF6368104AED1A15606F
:1038E0000D4A11688D4200D215601E433D00002331
:1038F00008356660236000F0F7F96B0701D072B6F7
:10390000FEE72800F8BDC0460C020020100E002083
:10391000100200201C0E0020180E0020140E0020A3
:1039200010B500281BD00E4A0838436812680400FE
:103930001A4201D172B6FEE70168002901D072B6C1
:10394000FEE79343436000F049F9064A6368116853
:1039500020005B181360FFF73DFF00F0C5F910BDB4
:10396000100E0020140E0020074A13681968074B38
:10397000002903D1012252421A6070471268D268AE
:10398000D2685268F8E7C046280E0020000F0020D9
:10399000F8B50400144B154D1E6828680F0004305C
:1039A000FFF73BFE631C07D1002F05D029681048A4
:1039B0000431FFF70FFEF8BD2B6834195C60A64296
:1039C00006D90C4B186829680431FFF70FFEF2E79F
:1039D000094B186829680431FFF708FE074B1A687D
:1039E0009442E8D21C60E6E7480F0020240E002035
:1039F000200F00202C0E0020280E0020000F002099
:103A0000F0B5950085B0029028000F000393FFF7F2
:103A100005FF061E00D18EE05420FFF7FFFE041EB6
:103A200000D185E00723043D066376199E430023F9
:103A300000961A00F95C3432A154FA5C002A02D0D4
:103A40000133102BF5D1230000250A9E43331D704E
:103A5000062E00D90626231D1800E6626664A564BA
:103A60000193FFF7B4FD20001830FFF7B0FD0723E6
:103A70009E1B230050332461A6616462E564039AAF
:103A80001D7002990098FFF7FDFD0B9B2060002B35
:103A900000D01C60FFF714FE2E4B2F4D1A68013228
:103AA0001A602A68002A49D12C601B68012B1DD19D
:103AB0002A4E37008C3730001436FFF77DFDB742B1
:103AC000F9D1274E3000FFF777FD264F3800FFF77A
:103AD00073FD2548FFF770FD2448FFF76DFD24486E
:103AE000FFF76AFD234B1E60234B1F60234A1368B8
:103AF00001331360224AE36A11688B4200D91360D4
:103B000014205843154B01991818FFF763FDFFF770
:103B1000E3FD1C4B01261B68002B06D02B68DA6ADC
:103B2000E36A9A4201D2FFF7BFFD300005B0F0BD55
:103B30003000FFF7F5FE01267642F6E7114B1B68D1
:103B4000002BD3D12B68E26ADB6A9342CED82C607B
:103B5000CCE7C046BC0E0020240E0020300E002012
:103B6000D40E0020E80E0020080F0020340F0020A3
:103B7000200F0020280E00202C0E0020CC0E00204C
:103B8000D00E00201C0F002013B500240D4B009414
:103B90000193802223000C490C48FFF731FF0128D4
:103BA0000BD172B601220A4B52421A60094B1860BF
:103BB000094B1C60FFF7F4FD13BD431CFCD172B62A
:103BC000FEE7C046FC0E0020FF4D0008ED3D00085A
:103BD000000F00201C0F0020480F0020024A13682D
:103BE000013313607047C046C80E0020334BF7B551
:103BF0001B68002B35D1324B1C6801341C60002C33
:103C000011D1304B1A681268002A01D072B6FEE753
:103C10002D4A19681068186011602C4A1368013326
:103C20001360FFF7A1FE2A4F00263B689C4207D392
:103C3000244B1A681268002A19D101235B423B60A9
:103C4000244B1B68DA6A14235343234AD358012BAD
:103C500000D90126214B1B68002B00D00126300023
:103C6000FEBD1F4A0026136801331360F2E71B688C
:103C7000DB68DD686B689C42E1D32B1D1800019363
:103C8000FFF7CBFCAB6A002B03D028001830FFF7FE
:103C9000C4FC144BE86A1A68904200D918601423D7
:103CA00058430D4B291D1818FFF794FC094BEA6A7D
:103CB0001B68DB6A9A42BBD30126B9E7C80E002015
:103CC000480F0020280E00202C0E0020040F00209A
:103CD000000F0020240E0020300E00204C0F00208A
:103CE000C40E0020D00E0020F8B52B4C2368002B0A
:103CF00001D172B6FEE7FFF7E3FC2368013B2360C6
:103D00002468002C04D00024FFF7E6FC2000F8BD56
:103D1000224B1B68002BF6D014260127204B1A6873
:103D2000002A1AD1002C01D0FFF71EFE1D4D2C6871
:103D3000002C0AD00126FFF759FF002801D01A4BAA
:103D40001E60013C002CF6D12C60174B1B68002B29
:103D5000D9D0FFF7A9FC0124D6E7DB68DC68200096
:103D6000251D1830FFF759FC2800FFF756FC0F4BB4
:103D7000E06A1A68904200D9186070430C4B290021
:103D80001818FFF727FC0B4BE26A1B68DB6A9A42A4
:103D9000C4D3054B1F60C1E7C80E0020BC0E002035
:103DA000080F0020C40E00204C0F0020D00E002071
:103DB000300E0020240E002070B5041E02D1FFF743
:103DC00073FC70BD084B1D68002D01D072B6FEE774
:103DD000FFF704FF29002000FFF7DAFDFFF784FF5B
:103DE0000028EED1EBE7C046C80E002070B5154C98
:103DF0002368002B06D1144B1B68012BF7D9FFF762
:103E000053FCF4E7FFF7EAFE104D2E68FFF76CFF56
:103E1000002EECD0FFF754FCEB68DD68281DFFF79F
:103E2000FCFB0B4A1368013B13602368013B2360D2
:103E3000FFF752FC286BFFF773FD2800FFF770FDBA
:103E4000D5E7C046C00E0020300E0020340F002001
:103E5000BC0E0020154B30B51A68154B002A02D055
:103E600001221A6030BD142412481A6002681249F7
:103E7000230053435D58002D12D0CC1865680833D9
:103E80006D68CB1865609D4201D16B686360142337
:103E90005343C9184B68D968084B19600260E1E7C1
:103EA000002A01D172B6FEE7013AE1E7C80E002010
:103EB0004C0F0020D00E0020300E0020240E0020D9
:103EC00010B5114C002211492000FEF7E9FF00282F
:103ED00001D0FCF753FC0E492000FEF7FBFF002841
:103EE00001D0FCF74BFC0B492000FEF789FF0028AE
:103EF00001D0FCF743FC2000FEF7F5FF002801D0BD
:103F0000FCF73CFC10BDC046F41200203401002038
:103F1000100000202401002000207047002070477E
:103F200010B5054C01002000FEF77EFF2000FEF7D3
:103F30009DFF002010BDC046F412002010B5064CB5
:103F4000002206492000FEF764FF05492000FEF725
:103F50006BFF002010BDC046F412002000190020A5
:103F6000181500200A00862110B5084C89000300AE
:103F70006058043941580120002906D11900200059
:103F8000FEF747FF2000FEF756FF10BDF412002099
:103F9000122301480B807047500100200423014880
:103FA0000B8070476401002010B5002452008A186D
:103FB000914200D110BD030F092B05D830330B708F
:103FC0004C7000010231F3E73733F8E71A2370B57C
:103FD0000B800B4B0B4C18680B4B1B68C018002850
:103FE0000BD00A4BA11C08221D68FFF7DDFF210042
:103FF000042212312800FFF7D7FF200070BDC04611
:10400000ACF7FF1F68010020B4F7FF1FB0F7FF1FD8
:1040100010B5044C0A0004482100FFF745FA2000BF
:1040200010BDC046E81C00201D4E000810B5044C11
:104030000A0004482100FFF737FA200010BDC046EF
:10404000E81C0020304E000810B5044C0A0004485B
:104050002100FFF729FA200010BDC046E81C00200F
:10406000044E000810B5044C0A0004482100FFF774
:104070001BFA200010BDC046E81C00200F4E0008AF
:1040800007B50B4B02689A4211D18020094A0004FF
:10409000D1690143D161D3690321034001931F20FA
:1040A0000022019BFCF7F0FC1F20FCF71DFD07BD63
:1040B000005C0040001002400100872310B59B0007
:1040C000ED31FF31C058FEF729FF10BD1C234B43D3
:1040D000C318FC33DA69872310B59B00C058FEF77C
:1040E00051FF10BD1C234B43C3189A6B872310B597
:1040F0009B00C058FEF780FF10BD872310B59B00C2
:10410000C058FFF707F810BD836870B50400022B94
:1041100001D0FCF733FB8725AD0001216059FEF784
:10412000E4FF6059FEF7BEFF70BD0000872310B5A5
:1041300004009B00C058FEF7DBFFA369002B04D0EE
:104140000623024A11690B43136110BD00ED00E024
:10415000836910B50400002B06D00621054A1369B7
:104160008B431361FCF7AEFA87239B00E058FEF700
:10417000CAFF10BD00ED00E0872370B505001C48A4
:104180009B00C5501B4B8824036008234360063BFB
:10419000836003610023A40028518361C36103622B
:1041A000FCF726FE002801D0FCF7E8FA0022285987
:1041B00011001823FDF70AFD2859582300228021F9
:1041C000FDF704FD2859C02300228121FDF7FEFCE4
:1041D000882328595B0000220121FDF7F7FC80238A
:1041E00028595B0000228221FDF7F0FC002070BD01
:1041F000E81E0020005C004088239B00C05810B5DA
:10420000FCF73CFE0223032801D8024B1B5C18007C
:1042100010BDC046464E000810B514001A00230019
:104220008824A4000059FCF749FE0223032801D882
:10423000014B1B5C180010BD464E000888239B00F4
:10424000C05810B5FCF78CFF0223032801D8024B9D
:104250001B5C180010BDC046464E000888239B001A
:10426000C05810B5FDF7C6F80223032801D8024B49
:104270001B5C180010BDC046464E000888239B00FA
:10428000C05810B5FDF700F90223032801D8024BEE
:104290001B5C180010BDC046464E000888239B00DA
:1042A000C35848B21C22002806DA7F2001404A4346
:1042B0009B182A33187870474A439B18FF33D87AE3
:1042C000F9E7000088239B00C05810B5FCF7DFFD1C
:1042D0000223032801D8024B1B5C180010BDC04606
:1042E000464E000810B58824A4000059FDF73AF99D
:1042F0000223032801D8024B1B5C180010BDC046E6
:10430000464E000810B58824A4000059FCF7C8FFE9
:104310000223032801D8024B1B5C180010BDC046C5
:10432000464E0008882310B59B00C058FDF758F88A
:1043300010BD000000487047500F0020704700007B
:104340000D4885460D480E490E4A002302E0D45818
:10435000C4500433C4188C42F9D30B4A0B4C0023CD
:1043600001E013600432A242FBD3FCF79FFA00F095
:1043700017F8FCF7E1F9FEE70040002000000020FC
:10438000E8010020884E0008E80100200C210020F0
:10439000FEE70000014B18687047C046840100200A
:1043A00070B500260C4D0D4C641BA410A64209D11B
:1043B000002600F05BFC0A4D0A4C641BA410A642C8
:1043C00005D170BDB300EB5898470136EEE7B30056
:1043D000EB5898470136F2E7804E0008804E0008FF
:1043E000804E0008844E0008002310B59A4200D188
:1043F00010BDCC5CC4540133F8E70300821893422B
:1044000000D1704719700133F9E700000EB410B500
:104410009DB002A9029008610B488224886048611F
:10442000012040421FABC881084804CBA4000068AB
:1044300001938C8100F086F80023029A13701DB05E
:1044400010BC08BC03B01847FFFFFF7F84010020A9
:1044500010B502000078002804D1097800290DD099
:1044600010BD013210780028FAD00023C85C002863
:1044700004D0D45C8442F4D10133F7E71000EFE7B5
:10448000F0B58E6885B007000C00039201939E4240
:1044900039D890238A89DB001A4234D00325096970
:1044A00023685B1A0293636902985D43EB0F5D1901
:1044B000019B6D1001331B18AB4200D91D00530541
:1044C00032D52900380000F031FB061E09D10C233B
:1044D0003B6040230120A28940421343A38105B0E1
:1044E000F0BD029A2169FFF77FFFA389144A1A40A1
:1044F00080231343A381029B2661F6182660656121
:10450000019EED1AA560019BB34200D21E0032004D
:104510000399206800F0ADFAA36800209B1BA360FC
:1045200023689E192660DAE72A00380000F05CFB59
:10453000061EE0D12169380000F0AEFAC7E7C04698
:104540007FFBFFFFF0B59FB0029005938B890F00B2
:1045500016001B0611D50B69002B0ED1402100F06F
:10456000E5FA38603861002805D10C23029A013839
:1045700013601FB0F0BD40237B61002306AD6B616B
:1045800020336B761033AB7634002378002B47D181
:10459000A31B04930DD0A31B320039000298FFF730
:1045A0006FFF431C00D1B5E06A69049B94466344E5
:1045B0006B612378002B00D1ACE001220023524232
:1045C0006A6002A95432521801342B60EB60AB6070
:1045D0001370AB65584E05222178300000F03EFA8A
:1045E000621C002820D12968CB0604D5532302AED3
:1045F00020309B1918700B0704D553232B2002AED3
:104600009B19187023782A2B16D000200A21099BA9
:104610002278303A092A55D9002815D0099313E099
:10462000252BB5D00134B0E70123801B83402968D6
:1046300014000B432B60CDE7059B181D1B680590EC
:10464000002B39DB0993140023782E2B0BD16378D0
:10465000621C2A2B3ED1059B02341A1D1B68059251
:10466000002B34DB0793354E21780322300000F015
:10467000F5F9002806D04023801B83402A680134C6
:1046800013432B60217806222D48661C297600F002
:10469000E5F9002846D02B4B002B2FD12968059B2C
:1046A0000722C90528D59B189343083305936B69E6
:1046B000039A9B186B6167E75B42EB6002230B4335
:1046C0002B60C0E74B4301349B180120A0E7012376
:1046D0005B42C7E7002314000A201A006B602178B0
:1046E0003039092903D9002BBDD00792BBE74243DB
:1046F000013452180123F2E70733D5E705AB0093E5
:104700003A00114B2900029800E000BF0390039B80
:104710000133CCD1BB890B985B0600D429E701207B
:10472000404226E705AB00933A00074B2900029868
:1047300000F07AF8EAE7C0464A4E0008504E0008FA
:10474000544E00080000000081440008F7B5150031
:1047500001938A680B6900900C00934200DA130001
:1047600022002B6043321278002A01D001332B60E3
:1047700023689B0602D52B6802332B60062723682B
:104780001F4027D0230043331B785A1E93412268D1
:10479000920630D42200019943320098089EB04717
:1047A000431C25D0062320682A68E16803400025C1
:1047B000042B03D18D1AEB43DB171D40A36822693C
:1047C000934201DD9B1AED180027BD4220D1002045
:1047D00010E00137E3682A689B1A9F42D2DA220070
:1047E0000123193201990098089EB047431CF0D16B
:1047F00001204042FEBD3020E11843310870210005
:104800005A1C45310978A218433202331170C1E7AE
:10481000220001231A3201990098089EB047431CD8
:10482000E6D00137D1E70000F0B58BB006920A0060
:1048300043320793059004920A7E0C00109B6E2A67
:1048400000D18FE017D8632A2CD008D8002A00D1D5
:1048500099E0582A54D026004236327029E0642A62
:1048600001D0692AF7D121681A68080623D5111DDD
:104870001960156825E0732A00D188E008D86F2AEE
:1048800029D0702AE7D1202209680A43226003E078
:10489000752A20D0782ADED1220078214532117085
:1048A0006C4A30E00E001A684236111D1960136818
:1048B0003370012379E04906D9D5111D1960002311
:1048C000D55E002D03DA2D23049A6D421370624BDE
:1048D0000A2703932FE020681968050603D5081DF1
:1048E00018600D6805E04006F9D50D68081D1860D0
:1048F000ADB2594B082703936F2A18D00A2716E048
:1049000045310A70544A03921A682168101D1860D4
:104910001568080622D5CB0702D52023194321604C
:104920001027002D03D1202322689A432260230000
:10493000002243331A706368A360002B5CDB0422FF
:10494000216891432160002D58D1049E002B64D032
:104950002600039B42361B7833705EE04806DAD5AA
:10496000ADB2D8E709681A68080605D5111D1960A7
:10497000136862691A6006E04906F7D5111D1960CF
:104980001368A28A1A800023049E236154E01A68E7
:10499000111D1960166800216268300000F05EF891
:1049A000002801D0801B6060636823610023049AA3
:1049B000137041E02369320006990598079DA847C6
:1049C000431C43D0236800259B070FD4099BE06854
:1049D00098423DDA18003BE0220001231932069983
:1049E0000598079EB047431C30D00135E368099A0B
:1049F0009B1A9D42F0DBE9E7002DA9D0049E280018
:104A00003900FBF71BFC039B013E5B5C2800337005
:104A10003900FBF78DFB051EF1D1082F09D1236862
:104A2000DB0706D563682269934202DC3023013E2E
:104A30003370049B9B1B2361079B09AA00932100F1
:104A4000069B0598FFF782FE431CB3D1012040422C
:104A50000BB0F0BD6C4E00085B4E0008C9B2821866
:104A6000904201D10020704703788B42FBD0013087
:104A7000F6E710B5884202D98B18984208D3002374
:104A80009A4207D0CC5CC4540133F9E78B5C835461
:104A9000013AFBD210BD000070B50500002910D00E
:104AA0000C1F2368002B00DAE418280000F0D4F86B
:104AB0001D4A1368002B05D163601460280000F0C4
:104AC000CCF870BDA34209D9216860188342F3D1A4
:104AD00018685B6841182160EEE713005A68002AE5
:104AE00001D0A242F9D919685818A0420BD1206808
:104AF0000918581819608242E0D1106852684118AC
:104B000019605A60DAE7A04202D90C232B60D5E77E
:104B100021686018824203D11068526841182160F0
:104B200062605C60CAE7C04670110020032370B564
:104B3000CD1C9D43083506000C2D1ED20C25A94224
:104B40001DD8300000F088F8254A1468210000299B
:104B500019D1244C2368002B03D1300000F06AF8EF
:104B600020602900300000F065F8431C2CD10C2394
:104B70003000336000F071F803E0002DDFDA0C2321
:104B80003360002070BD0B685B1B1AD40B2B03D95C
:104B90000B60CC18256003E08C420ED16368136073
:104BA000300000F05AF8200007220B30231D9043FC
:104BB000C31AE7D05A42E250E4E74B6863600C0046
:104BC000EEE70C004968C2E70323C41C9C43A042E3
:104BD000E0D0211A300000F02DF8431CDAD1C6E7EE
:104BE0007011002074110020F8B507000D001600A8
:104BF000002905D11100FFF799FF04002000F8BD3E
:104C0000002A03D1FFF748FF3400F7E700F026F849
:104C10002C008642F2D931003800FFF787FF041ECE
:104C2000ECD029003200FFF7DFFB29003800FFF746
:104C300033FFE3E7002370B5064C0500080023604E
:104C4000FBF71AFE431C03D12368002B00D02B6016
:104C500070BDC04608210020704770470B1F1B68BD
:104C6000181F002B01DA0B58C0187047F8B5C04662
:104C7000F8BC08BC9E467047F8B5C046F8BC08BCF6
:044C80009E46704795
:104C84005A4D000855020008000000000000000012
:104C9400800000004E4D000849020008FDFF00009E
:104CA4000000000080000000020304050607080954
:104CB4000A0B0C0D0E0F1010010203040506070861
:104CC400090A0B0C0D0E0F104750494F3300475083
:104CD400494F34004750494F35006D616320726578
:104CE40073657420383638006D61632073657420F1
:104CF400646576657569006D616320736574206110
:104D040070706B6579006D616320736574206170E8
:104D1400706575690031006D61632073657420707E
:104D24007772696478006F6666006D6163207365ED
:104D34007420616472006D61632073657420617214
:104D4400006D6163207361766500736572766963D3
:104D5400655461736B0064656661756C745461734A
:104D64006B0030304635354145373439314446429D
:104D740034370034383336463631373531363746F2
:104D8400364241423543314635313033384446307A
:104D940031333200373042334435374544303031D3
:104DA40042364432006D6163206A6F696E206F740D
:104DB40061610073797320726573657400257320D3
:104DC40025730D0A00737973207365742070696EFE
:104DD4006469672025732025750D0A006F6B000038
:104DE4000000000000000001020304060708090097
:104DF400000000010203040004080249444C450079
:104E040043444320436F6E6669670043444320492B
:104E14006E746572666163650053544D6963726FA5
:104E2400656C656374726F6E6963730053544D33BC
:104E340032205669727475616C20436F6D506F72C5
:104E4400740000020102232D302B2000686C4C00FA
:104E54006566674546470030313233343536373876
:104E640039414243444546003031323334353637D4
:0C4E74003839616263646566000000006C
:044E8000E90000083D
:044E8400C100000861
:104E8800984D0008774D0008664D000800127A001A
:104E9800712D0008352D0008BD2C00080000000009
:104EA800292C0008112C0008892C0008000000009B
:104EB8000000000000000000652C0008592C0008C4
:104EC800712C00087D2C000809024300020100C073
:104ED8003209040000010202010005240010010546
:104EE80024010001042402020524060001070582AA
:104EF8000308001009040100020A00000007050168
:104F0800024000000705810240000000090243003A
:104F1800020100C032090400000102020100052458
:104F280000100105240100010424020205240600E2
:104F3800010705820308001009040100020A0000A5
:104F480000070501020002000705810200020000B7
:104F58000A060002000000400100000009074300A3
:104F6800020104C032090400000102020100052404
:104F78000010010524010001042402020524060092
:104F880001070582030800FF09040100020A000066
:104F980000070501024000000705810240000000EB
:104FA800AAAAAAAA3D3F0008193F00081D3F000809
:104FB800213F0008913F00089D3F0008114000086C
:104FC8002D400008CD3F0008494000086540000812
:104FD800120100020202004083044057000201024D
:104FE80003010000040309041A0300000000000084
:104FF80000000000000000000000000000000000A9
:1050080000000000880100200000000000000000EF
:105018000000000000000000000000000000000088
:105028000000000000000000000000000000000078
:105038000000000000000000000000000000000068
:105048000000000000000000000000000000000058
:105058000000000000000000000000000000000048
:08506800000000000000000040
:04000005080043416B
:00000001FF
